:020000040800F2
:10000000000002208D2C0008692B00086B2B0008D3
:100010006D2B00086F2B0008712B000800000000FA
:10002000000000000000000000000000732B00082A
:10003000752B000800000000772B0008792B0008C2
:10004000DD2C0008DD2C0008DD2C0008DD2C00086C
:10005000DD2C0008DD2C0008DD2C0008DD2C00085C
:10006000DD2C0008DD2C0008DD2C0008DD2C00084C
:10007000DD2C0008DD2C0008DD2C0008DD2C00083C
:10008000DD2C0008DD2C0008812B0008000000009A
:10009000000000000000000000000000DD2C00084F
:1000A000DD2C0008DD2C0008DD2C0008DD2C00080C
:1000B000912B0008DD2C0008DD2C0008DD2C000849
:1000C000DD2C0008DD2C0008DD2C0008DD2C0008EC
:1000D000DD2C0008DD2C0008DD2C000800000000ED
:1000E000DD2C0008A12B0008DD2C0008000000001A
:1000F000000000000000000000000000DD2C0008EF
:1001000000000000DD2C0008DD2C0008DD2C0008BC
:1001100000000000000000000000000000000000DF
:10012000B12B0008DD2C0008DD2C0008DD2C0008B8
:10013000DD2C0008000000000000000000000000AE
:10014000000000000000000000000000DD2C00089E
:10015000DD2C0008DD2C0008DD2C0008DD2C00085B
:10016000DD2C0008DD2C000800000000000000006D
:10017000000000000000000000000000000000007F
:1001800000000000DD2C000800000000000000005E
:08019000DD2C0008DD2C000845
:1001C00010B5054C237833B9044B13B10448AFF391
:1001D00000800123237010BDC00900200000000032
:1001E00030B4000808B5034B1BB103490348AFF313
:1001F000008008BD00000000C409002030B40008E1
:1002000081F0004102E000BF83F0004330B54FEAC7
:1002100041044FEA430594EA050F08BF90EA020F34
:100220001FBF54EA000C55EA020C7FEA645C7FEAC7
:10023000655C00F0E2804FEA5454D4EB5555B8BFEA
:100240006D420CDD2C4480EA020281EA030382EA5B
:10025000000083EA010180EA020281EA0303362DED
:1002600088BF30BD11F0004F4FEA01314FF4801CC0
:100270004CEA113102D0404261EB410113F0004FD2
:100280004FEA03334CEA133302D0524263EB430389
:1002900094EA050F00F0A780A4F10104D5F1200E27
:1002A0000DDB02FA0EFC22FA05F2801841F1000182
:1002B00003FA0EF2801843FA05F359410EE0A5F156
:1002C00020050EF1200E012A03FA0EFC28BF4CF087
:1002D000020C43FA05F3C01851EBE37101F000453D
:1002E00007D54FF0000EDCF1000C7EEB00006EEB4A
:1002F0000101B1F5801F1BD3B1F5001F0CD34908D4
:100300005FEA30004FEA3C0C04F101044FEA44522A
:1003100012F5800F80F09A80BCF1004F08BF5FEAB1
:10032000500C50F1000041EB045141EA050130BD91
:100330005FEA4C0C404141EB0101013C28BFB1F5A3
:10034000801FE9D291F0000F04BF01460020B1FAEE
:1003500081F308BF2033A3F10B03B3F120020CDAC1
:100360000C3208DD02F1140CC2F10C0201FA0CF09F
:1003700021FA02F10CE002F11402D8BFC2F1200C04
:1003800001FA02F120FA0CFCDCBF41EA0C019040BA
:10039000E41AA2BF01EB0451294330BD6FEA040403
:1003A0001F3C1CDA0C340EDC04F11404C4F12002EE
:1003B00020FA04F001FA02F340EA030021FA04F300
:1003C00045EA030130BDC4F10C04C4F1200220FA57
:1003D00002F001FA04F340EA0300294630BD21FA95
:1003E00004F0294630BD94F0000F83F4801306BF5B
:1003F00081F480110134013D4EE77FEA645C18BF4F
:100400007FEA655C29D094EA050F08BF90EA020FE5
:1004100005D054EA000C04BF1946104630BD91EADD
:10042000030F1EBF0021002030BD5FEA545C05D1E0
:100430004000494128BF41F0004130BD14F580041F
:100440003CBF01F5801130BD01F0004545F0FE4193
:1004500041F470014FF0000030BD7FEA645C1ABFC8
:10046000194610467FEA655C1CBF0B46024650EAFF
:10047000013406BF52EA033591EA030F41F400212B
:1004800030BD00BF90F0000F04BF0021704730B5B1
:100490004FF4806404F132044FF000054FF0000186
:1004A00050E700BF90F0000F04BF0021704730B547
:1004B0004FF4806404F1320410F0004548BF40421C
:1004C0004FF000013EE700BF42004FEAE2014FEA71
:1004D00031014FEA02701FBF12F07F4393F07F4F4C
:1004E00081F06051704732F07F4208BF704793F04F
:1004F0007F4F04BF41F40021704730B54FF4607462
:1005000001F0004521F000411CE700BF50EA010264
:1005100008BF704730B54FF000050AE050EA01020D
:1005200008BF704730B511F0004502D5404261EB7D
:1005300041014FF4806404F132045FEA915C3FF4BE
:10054000D8AE4FF003025FEADC0C18BF03325FEA5B
:10055000DC0C18BF033202EBDC02C2F1200300FA0C
:1005600003FC20FA02F001FA03FE40EA0E0021FA31
:1005700002F11444BDE600BF70B54FF0FF0C4CF41F
:10058000E06C1CEA11541DBF1CEA135594EA0C0FD1
:1005900095EA0C0F00F0DEF82C4481EA030621EA0C
:1005A0004C5123EA4C5350EA013518BF52EA033547
:1005B00041F4801143F4801338D0A0FB02CE4FF0F9
:1005C0000005E1FB02E506F00042E0FB03E54FF029
:1005D0000006E1FB03569CF0000F18BF4EF0010E21
:1005E000A4F1FF04B6F5007F64F5407404D25FEA1D
:1005F0004E0E6D4146EB060642EAC62141EA5551D0
:100600004FEAC52040EA5E504FEACE2EB4F1FD0C11
:1006100088BFBCF5E06F1ED8BEF1004F08BF5FEA8F
:10062000500E50F1000041EB045170BD06F0004641
:1006300046EA010140EA020081EA0301B4EB5C04EE
:10064000C2BFD4EB0C0541EA045170BD41F48011E6
:100650004FF0000E013C00F3AB8014F1360FDEBF0B
:10066000002001F0004170BDC4F10004203C35DAE7
:100670000C341BDC04F11404C4F1200500FA05F36A
:1006800020FA04F001FA05F240EA020001F000420B
:1006900021F0004110EBD37021FA04F642EB060181
:1006A0005EEA430E08BF20EAD37070BDC4F10C04AB
:1006B000C4F1200500FA04F320FA05F001FA04F26F
:1006C00040EA020001F0004110EBD37041F100015B
:1006D0005EEA430E08BF20EAD37070BDC4F1200566
:1006E00000FA05F24EEA020E20FA04F301FA05F2CE
:1006F00043EA020321FA04F001F0004121FA04F276
:1007000020EA020000EBD3705EEA430E08BF20EA45
:10071000D37070BD94F0000F0FD101F0004640007F
:1007200041EB010111F4801F08BF013CF7D041EA01
:10073000060195F0000F18BF704703F00046520005
:1007400043EB030313F4801F08BF013DF7D043EAD6
:100750000603704794EA0C0F0CEA135518BF95EA8C
:100760000C0F0CD050EA410618BF52EA4306D1D113
:1007700081EA030101F000414FF0000070BD50EA32
:10078000410606BF1046194652EA430619D094EABC
:100790000C0F02D150EA013613D195EA0C0F05D1A6
:1007A00052EA03361CBF104619460AD181EA0301FA
:1007B00001F0004141F0FE4141F470014FF00000B2
:1007C00070BD41F0FE4141F4780170BD70B54FF04D
:1007D000FF0C4CF4E06C1CEA11541DBF1CEA1355CD
:1007E00094EA0C0F95EA0C0F00F0A7F8A4EB0504AF
:1007F00081EA030E52EA03354FEA013100F08880A6
:100800004FEA03334FF0805545EA131343EA12636E
:100810004FEA022245EA111545EA10654FEA002623
:100820000EF000419D4208BF964244F1FD0404F5DC
:10083000407402D25B084FEA3202B61A65EB030538
:100840005B084FEA32024FF480104FF4002CB6EBF5
:10085000020E75EB030E22BFB61A754640EA0C0075
:100860005B084FEA3202B6EB020E75EB030E22BFB5
:10087000B61A754640EA5C005B084FEA3202B6EBF6
:10088000020E75EB030E22BFB61A754640EA9C00B5
:100890005B084FEA3202B6EB020E75EB030E22BF85
:1008A000B61A754640EADC0055EA060E18D04FEA43
:1008B000051545EA16754FEA06164FEAC30343EAE3
:1008C00052734FEAC2025FEA1C1CC0D111F4801FB0
:1008D0000BD141EA00014FF000004FF0004CB6E7A9
:1008E00011F4801F04BF01430020B4F1FD0C88BF48
:1008F000BCF5E06F3FF6AFAEB5EB030C04BFB6EB53
:10090000020C5FEA500C50F1000041EB045170BD45
:100910000EF0004E4EEA113114EB5C04C2BFD4EB72
:100920000C0541EA045170BD41F480114FF0000EF6
:10093000013C90E645EA060E8DE60CEA135594EA72
:100940000C0F08BF95EA0C0F3FF43BAF94EA0C0F75
:100950000AD150EA01347FF434AF95EA0C0F7FF4EA
:1009600025AF104619462CE795EA0C0F06D152EA3E
:1009700003353FF4FDAE1046194622E750EA410622
:1009800018BF52EA43067FF4C5AE50EA41047FF433
:100990000DAF52EA43057FF4EBAE12E74FEA410296
:1009A000B2F1E04324BFB3F5001CDCF1FE5C0DD9CD
:1009B00001F0004C4FEAC0024CEA5070B2F1004F17
:1009C00040EB830008BF20F00100704711F0804F1A
:1009D00021D113F13872BCBF01F00040704741F4DF
:1009E00080114FEA5252C2F11802C2F1200C10FAE3
:1009F0000CF320FA02F018BF40F001004FEAC123C7
:100A00004FEAD32303FA0CFC40EA0C0023FA02F36A
:100A10004FEA4303CCE77FEA625307D150EA013340
:100A20001EBF4FF0FE4040F44000704701F0004010
:100A300040F0FE4040F40000704700BF80F00040EE
:100A400002E000BF81F0004142001FBF5FEA4103A6
:100A500092EA030F7FEA226C7FEA236C6AD04FEAA6
:100A60001262D2EB1363C1BFD218414048404140EB
:100A7000B8BF5B42192B88BF704710F0004F40F49D
:100A8000000020F07F4018BF404211F0004F41F4B9
:100A9000000121F07F4118BF494292EA030F3FD085
:100AA000A2F1010241FA03FC10EB0C00C3F1200398
:100AB00001FA03F100F0004302D5494260EB400027
:100AC000B0F5000F13D3B0F1807F06D340084FEA92
:100AD000310102F10102FE2A51D2B1F1004F40EB87
:100AE000C25008BF20F0010040EA030070474900EF
:100AF00040EB0000013A28BFB0F5000FEDD2B0FA8C
:100B000080FCACF1080CB2EB0C0200FA0CF0AABFAE
:100B100000EBC25052421843BCBFD040184370474C
:100B200092F0000F81F4000106BF80F40000013252
:100B3000013BB5E74FEA41037FEA226C18BF7FEA29
:100B4000236C21D092EA030F04D092F0000F08BF6B
:100B50000846704790EA010F1CBF0020704712F052
:100B60007F4F04D1400028BF40F00040704712F191
:100B700000723CBF00F50000704700F0004343F0F6
:100B8000FE4040F4000070477FEA226216BF08462C
:100B90007FEA23630146420206BF5FEA412390EAEF
:100BA000010F40F4800070474FF0000304E000BFE5
:100BB00010F0004348BF40425FEA000C08BF704796
:100BC00043F0964301464FF000001CE050EA01025A
:100BD00008BF70474FF000030AE000BF50EA01026F
:100BE00008BF704711F0004302D5404261EB41015C
:100BF0005FEA010C02BF84460146002043F0B64381
:100C000008BFA3F18053A3F50003BCFA8CF2083AA5
:100C1000A3EBC25310DB01FA02FC634400FA02FCAE
:100C2000C2F12002BCF1004F20FA02F243EB0200B5
:100C300008BF20F00100704702F1200201FA02FC17
:100C4000C2F1200250EA4C0021FA02F243EB02000A
:100C500008BF20EADC7070474FF0FF3C06E000BFA1
:100C60004FF0010C02E000BF4FF0010C4DF804CD35
:100C70004FEA40024FEA41037FEA226C18BF7FEA45
:100C8000236C11D001B052EA530C18BF90EA010F47
:100C900058BFB2EB030088BFC81738BF6FEAE170D6
:100CA00018BF40F0010070477FEA226C02D15FEA72
:100CB000402C05D17FEA236CE4D15FEA412CE1D0DE
:100CC0005DF8040B704700BF844608466146FFE7A5
:100CD0000FB5FFF7C9FF002848BF10F1000F0FBD87
:100CE0004DF808EDFFF7F4FF0CBF012000205DF880
:100CF00008FB00BF4DF808EDFFF7EAFF34BF012005
:100D000000205DF808FB00BF4DF808EDFFF7E0FF9D
:100D100094BF012000205DF808FB00BF4DF808EDEE
:100D2000FFF7D2FF94BF012000205DF808FB00BF51
:100D30004DF808EDFFF7C8FF34BF012000205DF833
:100D400008FB00BF53B94AB9002908BF00281CBFDF
:100D50004FF0FF314FF0FF3000F074B9ADF1080CE7
:100D60006DE904CE00F006F8DDF804E0DDE90223C9
:100D700004B070472DE9F047089E0D4604468846AA
:100D8000002B4DD18A42944668D9B2FA82F252B110
:100D900001FA02F3C2F1200120FA01F10CFA02FC7F
:100DA00041EA030894404FEA1C45210CB8FBF5FECC
:100DB0001FFA8CF705FB1E8341EA03430EFB07F184
:100DC00099420BD91CEB03030EF1FF3080F01E811A
:100DD000994240F21B81AEF1020E63445B1AA4B249
:100DE000B3FBF5F005FB103344EA034400FB07F7BF
:100DF000A7420AD91CEB040400F1FF3380F00881FC
:100E0000A74240F2058164440238E41B40EA0E40E8
:100E100000211EB1D4400023C6E90043BDE8F0879D
:100E20008B4208D9002E00F0EE800021C6E90005B3
:100E30000846BDE8F087B3FA83F100294AD1AB42F6
:100E400002D3824200F2F980841A65EB0303012089
:100E50009846002EE2D0C6E90048DFE702B9FFDE7F
:100E6000B2FA82F2002A40F09180A1EB0C054FEA21
:100E70001C471FFA8CFE0121B5FBF7F307FB13504B
:100E8000250C45EA00450EFB03F0A84208D91CEBEF
:100E9000050503F1FF3802D2A84200F2CB80434699
:100EA0002D1AA4B2B5FBF7F007FB105544EA054430
:100EB0000EFB00FEA64508D91CEB040400F1FF352B
:100EC00002D2A64500F2BB802846A4EB0E0440EAFD
:100ED00003409EE7C1F120078B4022FA07FC4CEA51
:100EE000030C20FA07F405FA01F31C43FD404FEA16
:100EF0001C4900FA01F3B5FBF9F8200C1FFA8CFE2F
:100F000009FB185540EA054508FB0EF0A84202FA15
:100F100001F20BD91CEB050508F1FF3A80F088803F
:100F2000A84240F28580A8F1020865442D1AA4B2B7
:100F3000B5FBF9F009FB105544EA054500FB0EFE30
:100F4000AE4508D91CEB050500F1FF346CD2AE4567
:100F50006AD90238654440EA0840A0FB0294A5EB38
:100F60000E05A542C846A64656D353D05EB1B3EB94
:100F7000080265EB0E0505FA07F722FA01F3CD40EA
:100F80001F43C6E900750021BDE8F087C2F12003C8
:100F900020FA03F10CFA02FC25FA03F395400D4305
:100FA0004FEA1C471FFA8CFEB3FBF7F107FB113029
:100FB0002B0C43EA004301FB0EF0984204FA02F4C2
:100FC00008D91CEB030301F1FF382FD298422DD929
:100FD000023963441B1AADB2B3FBF7F007FB1033C1
:100FE00045EA034500FB0EF3AB4208D91CEB0505AF
:100FF00000F1FF3816D2AB4214D902386544ED1A1D
:1010000040EA014138E73146304607E78646E5E6E3
:101010001846FAE64B45A9D2B9EB020864EB0C0E70
:101020000138A3E74046EAE7204694E74146D1E786
:10103000D0467BE7023B654432E7084609E7644453
:10104000023842E7704700BF844641EA000313F0CC
:1010500003036DD1403A41D351F8043B40F8043BBF
:1010600051F8043B40F8043B51F8043B40F8043B82
:1010700051F8043B40F8043B51F8043B40F8043B72
:1010800051F8043B40F8043B51F8043B40F8043B62
:1010900051F8043B40F8043B51F8043B40F8043B52
:1010A00051F8043B40F8043B51F8043B40F8043B42
:1010B00051F8043B40F8043B51F8043B40F8043B32
:1010C00051F8043B40F8043B51F8043B40F8043B22
:1010D00051F8043B40F8043B403ABDD2303211D3C2
:1010E00051F8043B40F8043B51F8043B40F8043B02
:1010F00051F8043B40F8043B51F8043B40F8043BF2
:10110000103AEDD20C3205D351F8043B40F8043BC1
:10111000043AF9D2043208D0D2071CBF11F8013BBF
:1011200000F8013B01D30B8803806046704700BF85
:10113000082A13D38B078DD010F003038AD0C3F194
:101140000403D21ADB071CBF11F8013B00F8013B76
:1011500080D331F8023B20F8023B7BE7043AD9D335
:10116000013A11F8013B00F8013BF9D20B7803700A
:101170004B7843708B7883706046704700000000A6
:1011800090F800F06DE9024520F007016FF0000CC7
:1011900010F0070491F820F040F049804FF000046F
:1011A0006FF00700D1E9002391F840F000F108004A
:1011B00082FA4CF2A4FA8CF283FA4CF3A2FA8CF382
:1011C0004BBBD1E9022382FA4CF200F10800A4FAE9
:1011D0008CF283FA4CF3A2FA8CF3E3B9D1E904233D
:1011E00082FA4CF200F10800A4FA8CF283FA4CF374
:1011F000A2FA8CF37BB9D1E9062301F1200182FA2E
:101200004CF200F10800A4FA8CF283FA4CF3A2FA33
:101210008CF3002BC6D0002A04BF04301A4612BA41
:10122000B2FA82F2FDE8024500EBD2007047D1E944
:10123000002304F00305C4F100004FEAC50514F0D3
:10124000040F91F840F00CFA05F562EA05021CBFA4
:1012500063EA050362464FF00004A9E700000000BE
:1012600001F0FF01102A2BDB10F0070F08D010F857
:10127000013B013A8B422DD010F0070F42B3F6D15B
:10128000F0B441EA012141EA014122F007047FF074
:1012900000070023F0E80256083C85EA010586EACB
:1012A000010685FA47F5A3FA87F586FA47F6A5FA07
:1012B00087F68EB9EED1F0BC01F0FF0102F0070213
:1012C00032B110F8013B013A83EA010313B1F8D1BE
:1012D0000020704701387047002D06BF354603389F
:1012E000073815F0010F07D1013015F4807F02BFD8
:1012F000013015F4C03F0130F0BC0138704700BF29
:101300004FF0FF3C06E000BF4FF0010C02E000BFD1
:101310004FF0010C4DF804CD4FEA410C7FEA6C5CB4
:101320004FEA430C18BF7FEA6C5C1BD001B050EA57
:10133000410C0CBF52EA430C91EA030F02BF90EA42
:10134000020F0020704710F1000F91EA030F58BF01
:10135000994208BF90422CBFD8176FEAE37040F063
:10136000010070474FEA410C7FEA6C5C02D150EA01
:10137000013C07D14FEA430C7FEA6C5CD6D152EABC
:10138000033CD3D05DF8040B704700BF8446104681
:1013900062468C461946634600E000BF01B5FFF780
:1013A000B7FF002848BF10F1000F01BD4DF808ED50
:1013B000FFF7F4FF0CBF012000205DF808FB00BF21
:1013C0004DF808EDFFF7EAFF34BF012000205DF87B
:1013D00008FB00BF4DF808EDFFF7E0FF94BF0120C8
:1013E00000205DF808FB00BF4DF808EDFFF7CEFFC9
:1013F00094BF012000205DF808FB00BF4DF808ED08
:10140000FFF7C4FF34BF012000205DF808FB00BFD8
:101410004FEA410C7FEA6C5C02D150EA013C0AD1F0
:101420004FEA430C7FEA6C5C02D152EA033C02D1E2
:101430004FF0000070474FF0010070474FEA410243
:1014400012F5001215D211D56FF47873B3EB625216
:1014500012D94FEAC12343F0004343EA505311F03D
:10146000004F23FA02F018BF404270474FF00000CF
:10147000704750EA013005D111F0004008BF6FF00D
:10148000004070474FF00000704700BF00B587B0C4
:101490000023019302930393049305930191012385
:1014A000029301A902F0E8F907B05DF804FB00B56A
:1014B00087B0002301930293039304930593019152
:1014C00001A902F0D9F907B05DF804FB10B50B4C87
:1014D00001212046FFF7DAFF00220121204602F019
:1014E000A8FA4FF4966000F0F7F801212046FFF7C4
:1014F000DEFF1E2000F0F0F810BD00BF000002402B
:1015000010B501210C4802F08DFA40B100240121F0
:10151000094802F087FA0028F9D1204610BD502072
:1015200000F0DAF80121044802F07CFA08B1012445
:10153000EDE7FF24EBE700BF0000024038B50025CF
:101540002C460DE0C4F10702012393402B43DDB28A
:101550000121104802F066FA0028F9D10134E4B202
:10156000072C15D801210B4802F05CFA0028F9D0AD
:10157000232000F0B1F80121064802F053FA0028B8
:10158000E0D1C4F107020123934025EA0305DFE718
:10159000284638BD000002402DE9F0410446FFF71F
:1015A00095FFFFF7ADFF214B1870FFF7C7FFDFF87E
:1015B000808088F80000FFF7C1FF1E4F3870FFF7EA
:1015C000BDFF1D4E3070FFF7B9FF1C4D2870FFF7AF
:1015D000B5FF82B21A4B1A8098F8003039780B4464
:1015E000307850FA83F3297851FA83F3DBB29A42C8
:1015F00001D0BDE8F08141EA0020FEF753FF002250
:10160000104BFFF7E3F8FFF7C9F9206098F80000E6
:101610003B7843EA0020FEF745FF0022094BFFF725
:10162000D5F8FFF7BBF96060E3E700BFDC090020F5
:10163000DD090020DE090020E2090020E309002086
:10164000E00900200000244000B587B003F0C6F890
:101650001D4BA3FB0030800C1C4A10601C481D4B26
:101660000360002302930393049305930093019373
:101670001268013A426083604FF6FF72C2600361F4
:101680008023836103F0E0FDA8B94FF480530293F7
:1016900002A90F4803F0B8FE80B90023009301931C
:1016A00069460B4803F01EFF58B9094803F0A9FC2E
:1016B00007B05DF804FB00F083FAE6E700F080FA7B
:1016C000EBE700F07DFAF0E783DE1B43240A0020FD
:1016D000E40900200004004082B0ADF80600074B8A
:1016E0001B6800225A62054B1B685A6ABDF8063017
:1016F0009BB29A42F7D302B0704700BFE4090020C2
:101700002DE9F0478CB000240794089409940A94BA
:101710000B940194584B1A6B42F010021A631A6B27
:1017200002F010020192019A02941A6B42F08002B8
:101730001A631A6B02F080020292029A03941A6BE7
:1017400042F004021A631A6B02F004020392039A35
:1017500004941A6B42F001021A631A6B02F0010240
:101760000492049A05941A6B42F002021A631A6BEF
:1017700002F002020592059A06941A6B42F00802E2
:101780001A631B6B03F008030693069BDFF8EC80DB
:10179000224641F60841404602F04BF9384E2246B7
:1017A0004FF4A841304602F044F9364F22464FF438
:1017B0008061384602F03DF9DFF8CC90224641F2D4
:1017C0001C01484602F035F9282307930894099430
:1017D00007A9304602F050F841F608430793012567
:1017E000089509940A9407A9404602F045F84FF07D
:1017F000050ACDF81CA00894099407A9234802F013
:101800003BF8102307930894099507A9404602F076
:1018100033F8CDF81CA00894099507A9384602F0C2
:101820002BF84FF4807307930894099507A9304665
:1018300002F022F84FF4A8430793089509940A94FC
:1018400007A9304602F018F84FF480630793089513
:1018500009940A9407A9384602F00EF841F21C03D5
:101860000793089509940A9407A9484602F004F8DA
:101870000CB0BDE8F08700BF00380240000802400D
:101880000010024000040240000C02400000024030
:1018900000B583B000210191094B1A6B42F480021C
:1018A0001A631B6B03F480030193019B0A463820E3
:1018B00001F0CCFD382001F001FE03B05DF804FB1F
:1018C0000038024008B50948094B0360094B4360E2
:1018D00000238360C3604FF48042026143618361EF
:1018E000C361036202F006FA08BD00BFD00A0020FF
:1018F00000540040A086010030B587B00024029457
:10190000039404940594009401940E4D0E4B2B60A7
:101910006C60AC604FF6FF73EB602C61AC612846E5
:1019200003F092FC4FF48053029302A9284603F07F
:101930006BFD009401946946284603F0D3FD07B07F
:1019400030BD00BF840B00200004004070B584B09F
:10195000002500950195029503950F4C0F4B2360D0
:101960006560A56001262661257684F82050E56231
:101970000B4BA362E560E66184F830506661204657
:1019800001F0AEFA0096019602956946204601F0F4
:1019900073FC04B070BD00BF280A00200020014085
:1019A0000100000F30B58FB000240A940B940C9402
:1019B0000D9408940994019402940394049405945A
:1019C00006940794164D4FF080432B6040F2E733A6
:1019D0006B60AC60EB602C61AC61284603F034FCBA
:1019E0004FF480530A930AA9284603F00DFD2846B8
:1019F00003F044FC0894099408A9284603F072FDFA
:101A000060230193029403940594224601A9284679
:101A100003F080FC284601F07DF80FB030BD00BF18
:101A2000440B002030B591B000240B940C940D941D
:101A30000E940F940A9428222146684603F0BCFDB8
:101A4000234D244B2B606C607F23AB60FF23EB6046
:101A50002C616C61AC61284602F0F7FF17238DF80A
:101A60002C303B238DF82D302D238DF82E300E9405
:101A70000F9422460BA9284603F054F803238DF84F
:101A8000283010238DF829301C238DF82A308DF84A
:101A90002B4022460AA9284603F0C3F88DF80040DF
:101AA0008DF801408DF8024001940394049405944C
:101AB0000694079401238DF820304FF48073099326
:101AC00022466946284603F019F911B030BD00BF1F
:101AD000240B00200028004030B59BB030220021AC
:101AE0000EA803F069FD002409940A940B940C9449
:101AF0000D94039404940594069407940894019417
:101B0000204B1A6C42F080521A641B6C03F0805315
:101B10000193019B02941C4B1A6842F440421A60E4
:101B20001B6803F440430293029B09230E934FF476
:101B300080330F9301231393022514954FF48003F0
:101B40001593042316936423179318950823199368
:101B50000EA802F033FB0F2309930A950B944FF460
:101B6000A0530C934FF480530D93032109A802F066
:101B700085FD03954FF40073079303A802F044FE1C
:101B80001BB030BD003802400070004008B501F0C5
:101B9000CDF8FFF7A1FFFFF7B3FDFFF779FEFFF7E1
:101BA00091FEFFF7A9FEFFF7D1FEFFF7FBFEFFF75F
:101BB00039FFFFF749FD00F0F1FA00F003F808BD26
:101BC000704700002DE9F04788B0002401943C4B99
:101BD0001A6B42F001021A631A6B02F001020192C1
:101BE000019A02941A6B42F002021A631B6B03F013
:101BF00002030293029B4FF48068CDF80C8001250C
:101C00000495059406942F4F03A9384601F034FE3D
:101C10004FF4804ACDF80CA00495059406942A4E02
:101C200003A9304601F028FE4FF48059CDF80C90FE
:101C300004950594069403A9304601F01DFECDF8E5
:101C40000C8004950594069403A9304601F014FE17
:101C500022464146384601F0ECFE224651463046C7
:101C600001F0E7FE22464946304601F0E2FE2246F8
:101C70004146304601F0DDFE4FF480730393049437
:101C8000059503A9304601F0F7FD0423039304945E
:101C9000059503A9384601F0EFFD039504940595D9
:101CA00003A9384601F0E8FD102303930494059539
:101CB00003A9064801F0E0FD08B0BDE8F08700BFC9
:101CC00000380240000402400010024000080240B8
:101CD00070B584B0874B0FCB04AC04E90F0000242F
:101CE000254627E031244FF48071834801F09AFEA5
:101CF0000028F7D000E032240421804801F092FE51
:101D00000028F8D000E0332401217C4801F08AFE4D
:101D10000028F8D000E041241021794801F082FE2B
:101D20000028F8D0012D27D0022D63D0032D00F01C
:101D30009F800135032D00F3D980002DF2D16E4E26
:101D400001224FF48041304601F073FE01224FF42E
:101D50008051304601F06DFE01224FF48061304623
:101D600001F067FE00224FF48061644801F061FEDB
:101D70000A2001F007F8B6E701224FF480615F48BE
:101D800001F057FE5C4E01224FF48051304601F0C5
:101D900050FE01224FF48061304601F04AFE0022DD
:101DA0004FF48041304601F044FE0A2000F0EAFF83
:101DB00000E034244FF480714F4801F033FE0028D6
:101DC000F7D000E0352404214C4801F02BFE002818
:101DD000F8D000E036240121484801F023FE002815
:101DE000F8D000E042241021454801F01BFE0028F5
:101DF000F8D099E701224FF48061404801F019FEC4
:101E00003D4E01224FF48041304601F012FE012286
:101E10004FF48061304601F00CFE00224FF48051F7
:101E2000304601F006FE0A2000F0ACFF00E0372447
:101E30004FF48071304801F0F5FD0028F7D000E044
:101E4000382404212D4801F0EDFD0028F8D000E0F1
:101E500039240121294801F0E5FD0028F8D000E0EF
:101E600043241021264801F0DDFD0028F8D05DE76D
:101E700001224FF48061214801F0DBFD1E4E01225A
:101E80004FF48041304601F0D4FD01224FF48051DF
:101E9000304601F0CEFD00224FF48061304601F063
:101EA000C8FD0A2000F06EFF00E02A244FF4807184
:101EB000114801F0B7FD0028F7D000E030240421DC
:101EC0000E4801F0AFFD0028F8D000E023240121E6
:101ED0000A4801F0A7FD0028F8D000E044241021B2
:101EE000074801F09FFD0028F8D022E7204604B003
:101EF00070BD00BF48B4000800100240000402405A
:101F00000008024008B5542202490348FFF79CF834
:101F100008BD00BFD00A0020640D002008B53220A3
:101F200000F030FFFFF7EEFF4FF47A73032204490D
:101F30000978044802F078F80028F5D108BD00BF00
:101F400004000020640D002010B582B000F0F00203
:101F5000104C22700301DBB20F490B700F48007860
:101F60000243227003430B700D4C42F004012170B8
:101F7000627043F00402A270E370FFF7C3FFC8234E
:101F800000930423224607490978074801F090FF8F
:101F900002B010BD620D0020610D0020600D002018
:101FA0005C0D002004000020640D002010B582B0FC
:101FB00000F0F002124C22700301DBB211490B70E9
:101FC000114800780243227003430B700F4C42F01B
:101FD0000501217042F00102627043F00502A27017
:101FE00043F00103E370FFF78DFFC8230093042340
:101FF000224607490978074801F05AFF02B010BD90
:10200000620D0020610D0020600D00205C0D00209D
:1020100004000020640D002008B50120FFF794FFA4
:102020000A2000F0AFFE034B00221A70024B01227F
:102030001A7008BDB80D00200500002008B50A4B35
:102040001870431E012B00D908BD4B1E0F2BFBD867
:1020500001381946054B03EB0010405C40F080004E
:10206000FFF772FFF0E700BF0500002058B400083A
:1020700010B504462F4B00221A7011B1012930D03F
:1020800010BD20780028FBD00134FFF78FFF294ACC
:1020900013780133DBB21370102BF2D1264B187872
:1020A00001210844FFF7CAFF224B00221A70E8E71B
:1020B000224A42F8234001330134632BF8DD1F4BE1
:1020C0001868FFF75DF81E4B18701B4C2078431EF4
:1020D0001C4AD15CFFF7B2FF2378013B1A4AD45C5B
:1020E00008E00023E9E7154B53F824301878FFF790
:1020F0005DFF0134124B1B78A342F4DC0E4A1178C9
:1021000001391048425C013AD2B24254002AB7D198
:102110000246012050540C48425C0132D2B2425473
:102120009342ADD1074B10225A5400234354044A22
:102130001370A5E7B80D002005000020C40B002097
:10214000580D002000000020540D002010B59AB05A
:1021500004460846FEF7B8F902460B46214601A898
:1021600003F07CFA002101A8FFF782FF1AB010BD2E
:1021700008B5082801D038B108BD074B08221A70ED
:102180002020FFF713FFF7E7034B00221A702020EF
:10219000FFF70CFFF0E700BF600D002008B501203D
:1021A000FFF7D2FE4FF47A7000F0ECFD0220FFF74B
:1021B000CBFE052000F0E6FD2820FFF7C5FE052038
:1021C00000F0E0FD0C20FFF7BFFE052000F0DAFD77
:1021D0008020FFF7B9FE4FF4FA7000F0D3FD08BD80
:1021E00010B5044604210120FFF728FF21460248CC
:1021F000FFF7ACFF10BD00BF78B4000810B504466F
:1022000001210220FFF71AFF21460248FFF79EFF37
:1022100010BD00BF88B40008B0F5805F06D240F65C
:10222000FC03984204D840F6FD0001E040F6FF7040
:10223000A0F6FC00642303FB00F0054BA3FB002386
:10224000C01A03EB5000800AC0F16400704700BF61
:10225000871B15242DE9F843FFF798FCC82000F0F0
:1022600091FDCE4C01220821204601F0E2FB002224
:102270001021CB4801F0DDFB00224FF480512046B5
:1022800001F0D7FBFFF74AFEFFF788FF0820FFF7B2
:102290006FFF01210846FFF7D1FEFFF7BDFE4FF0AB
:1022A0007E51C048FFF752FF4FF47A6000F06AFD9C
:1022B000FFF7B2FE3C2532264FF000084746B4E255
:1022C000FFF7AAFE05210120FFF7B8FE4FF07E516F
:1022D000B548FFF73BFF4FF4FA6000F053FD03E011
:1022E0000A2608B1642E31D1FFF7F2FCA0F13003C9
:1022F000092B27D801A252F823F000BF4123000880
:10230000E1220008492300082523000829230008AA
:102310002D23000831230008352300083923000845
:102320003D2300081E26DCE72826DAE73226D8E718
:102330003C26D6E74626D4E75026D2E75A26D0E7F1
:102340000026CEE76426CCE71426CAE70521012043
:10235000FFF774FE3046FEF72BFC01469348FFF76B
:10236000F5FE05210220FFF769FE4FF07E519048EF
:10237000FFF7ECFE03E00A2508B1AE4230DBFFF7C1
:10238000A7FCA0F13003092B26D801A252F823F0B4
:10239000D523000877230008DD230008B9230008AF
:1023A000BD230008C1230008C5230008C923000875
:1023B000CD230008D12300081E25DDE72825DBE713
:1023C0003225D9E73C25D7E74625D5E75025D3E781
:1023D0005A25D1E70025CFE76425CDE71425CBE7C3
:1023E00005210220FFF72AFE2846FEF7E1FB014601
:1023F0007048FFF7ABFE4FF47A6000F0C3FCFFF7C4
:102400000BFE6D4C2046FFF7C7F82068FFF7E8FE8B
:102410006068FFF7F3FE694C204600F08DFD052152
:10242000204600F025FE002800F070810A210220DD
:10243000FFF704FE624B1868FEF7B6FB01466148E1
:10244000FFF784FE4FF4FA6000F09CFC5E495A4BA3
:102450001868FEF74FFC002800F06781002F40F05D
:102460006681B8F1000F40F06281FFF7D5FD0121D0
:102470000220FFF7E3FD4FF07E515448FFF766FE60
:10248000474C01221021204601F0D3FA01220821F5
:10249000204601F0CEFA00220421204601F0C9FABC
:1024A00020214B4801F0BEFA0028F9D0002210216B
:1024B0003B4801F0BEFA012739E101210220FFF774
:1024C000BDFD4FF07E514348FFF740FE4FF4FA60E8
:1024D00000F058FC93E701210220FFF7AFFD4FF019
:1024E0007E513D48FFF732FE4FF4FA6000F04AFC9F
:1024F00085E701210220FFF7A1FD4FF07E5137480B
:10250000FFF724FE4FF4FA6000F03CFC77E701216E
:102510000220FFF793FD4FF07E513148FFF716FE82
:102520004FF4FA6000F02EFC69E701210220FFF76A
:1025300085FD4FF07E512B48FFF708FE4FF4FA60FF
:1025400000F020FC5BE701210220FFF777FD4FF050
:102550007E512548FFF7FAFD4FF4FA6000F012FCB7
:102560004DE701210220FFF769FD4FF07E511F4822
:10257000FFF7ECFD4FF4FA6000F004FC3FE70121A7
:102580000220FFF75BFD4FF07E511948FFF7DEFD9B
:102590004FF4FA6000F0F6FB31E700BF000802409C
:1025A000000C024094B40008A4B40008ACB40008C5
:1025B000BCB40008C4B40008BC0D0020C40D002049
:1025C0000C0E002080B500080000C0404CB500088B
:1025D00000100240D4B40008E0B40008ECB40008D5
:1025E000F8B4000804B5000810B500081CB50008D0
:1025F00028B5000801210220FFF720FD4FF07E5191
:10260000B748FFF7A3FD4FF4FA6000F0BBFBF6E616
:1026100005210220FFF712FD4FF07E51B148FFF770
:1026200095FD00234B225A634FF47A6000F0AAFB19
:10263000E5E657BB01210220FFF700FD4FF07E5178
:10264000A948FFF783FDA94C01221021204601F083
:10265000F0F901220821204601F0EBF900220421C3
:10266000204601F0E6F92021A14801F0DBF900281D
:10267000F9D0002210219D4801F0DBF9B8F1000FDC
:102680003CD14FF001084746B9E601210220FFF78F
:10269000D5FC4FF07E519748FFF758FD934C01222F
:1026A0001021204601F0C5F900220821204601F042
:1026B000C0F901220421204601F0BBF908218C4811
:1026C00001F0B0F90028F9D000221021874801F06C
:1026D000B0F9B8F1000F15D13B46474698468EE653
:1026E00001210220FFF7AAFC4FF07E518248FFF73C
:1026F0002DFD4FF4FA6000F045FB80E63B4647466F
:1027000098467CE64FF00008474678E6204600F001
:1027100005FDDFF8E891C9F80000FFF77DFDC9F875
:102720000000204600F084FC80E6012F02D0FFF775
:1027300073FC3FE0B8F1000FF9D1FFF76DFC012108
:102740000220FFF77BFC4FF07E516A48FFF7FEFC4A
:10275000664C01221021204601F06BF9002208216D
:10276000204601F066F901220421204601F061F9BA
:1027700008215F4801F056F90028F9D00022102105
:102780005A4801F056F94746D1E7204600F0C6FC0A
:10279000DFF86891C9F80000FFF73EFDC9F80000B6
:1027A000204600F045FC0FE0544B1B689C4230D3A0
:1027B000B3422ED3524C204600F0BEFB05212046EA
:1027C00000F056FC0028E0D04C4B1B682C46AB4276
:1027D000EAD2B342E8D905210220FFF72FFC4FF0DF
:1027E0007E514848FFF7B2FCDFF81C9101224FF4FC
:1027F0008051484601F01DF901224FF4006148461E
:1028000001F017F900224FF48061484601F011F9F8
:10281000CAE700224FF480513B4801F00AF9042135
:102820003A4801F0FFF800283CD1002332225A63D5
:10283000FFF74EFA0446FFF7EFFB002C3FF4DFAD45
:10284000303C142C3FF6DBAD01A353F824F000BF5D
:10285000E1260008BB240008D7240008F324000860
:102860000F2500082B2500084725000863250008D0
:102870007F250008F5250008FF230008FF23000836
:10288000FF230008FF230008FF230008FF230008A0
:10289000FF230008C1220008FF23000811260008BA
:1028A00033260008114C01224FF48051204601F0DC
:1028B000C0F8FFF7B1FB04210220FFF7BFFB4FF088
:1028C0007E511348FFF742FC4FF47A7000F05AFA39
:1028D00000224FF48051204601F0ABF8A5E700BF7D
:1028E00034B5000840B500084CB50008000C0240A3
:1028F0000010024060B5000874B500080C0E0020FE
:10290000C40D00208CB50008000802400000024001
:1029100094B5000800B583B0002100910C4B5A6CAF
:1029200042F480425A645A6C02F480420092009A47
:1029300001911A6C42F080521A641B6C03F08053B0
:102940000193019B072000F06FFD03B05DF804FBCD
:102950000038024030B589B00023039304930593F7
:1029600006930793026803F1804303F590339A427C
:1029700001D009B030BD04460025019503F58C3324
:102980005A6C42F480725A645A6C02F4807201925A
:10299000019A02951A6B42F001021A631B6B03F055
:1029A00001030293029B1A2303930323049303A9B5
:1029B000144800F061FF1448144B036045608560C3
:1029C000C5604FF4806303614FF4805343614FF45B
:1029D000804383614FF48073C3610562456200F0F8
:1029E000F7FD58B9084BA3639C63002211461220DF
:1029F00000F02CFD122000F061FDBAE7FFF7E0F8CF
:102A0000F0E700BF00000240700A0020106402409E
:102A100030B589B00023039304930593069307937D
:102A20000268144B9A4201D009B030BD00250195CF
:102A3000114C236B43F002032363236B03F0020367
:102A40000193019B4FF4107303931223049301230A
:102A500005930423079303A9084800F00DFF02958E
:102A6000236C43F400132364236C03F400130293D8
:102A7000029BD9E7005400400038024000040240A5
:102A800008B50268084B9A4200D008BD074B0122E6
:102A9000C3F83C2E00221146292000F0D7FC292043
:102AA00000F00CFDF1E700BF0028004000004742A5
:102AB00000B583B00368B3F1804F05D0134A934249
:102AC00017D003B05DF804FB0021009103F50E332D
:102AD0001A6C42F001021A641B6C03F001030093AC
:102AE000009B0A461C2000F0B1FC1C2000F0E6FC14
:102AF000E7E700230193064B1A6C42F002021A64C6
:102B00001B6C03F002030193019BDAE70004004011
:102B10000038024000B587B000230193029303936D
:102B2000049305930368B3F1804F02D007B05DF8BA
:102B300004FB002300930A4B1A6B42F001021A6354
:102B40001B6B03F001030093009B202301930223DE
:102B500002930123059301A9024800F08DFEE5E7E9
:102B600000380240000002407047FEE7FEE7FEE743
:102B7000FEE770477047704708B500F0F1F808BDF0
:102B800008B5024800F0D0FA08BD00BF280A0020AE
:102B900008B5024802F04DFA08BD00BF440B002002
:102BA00008B5024801F0EAFE08BD00BF240B002072
:102BB00008B5024800F072FD08BD00BF700A002091
:102BC0000120704708B502F0CDFC162303604FF0DA
:102BD000FF3008BD08B54FF0FF31FFF7F3FFFEE708
:102BE00070B50C461646002506E0AFF3008021467E
:102BF00001F8010B01350C46B542F6DB304670BDDD
:102C000070B50C461646002504E014F8010BAFF32E
:102C100000800135B542F8DB304670BD4FF0FF3023
:102C200070474FF400534B600020704701207047FD
:102C30000020704710B503460C4A0D490D48006846
:102C400040B10C4800680344521A934206D8094A1E
:102C5000136010BD0748084C0460F2E702F082FCE4
:102C60000C2303604FF0FF30F3E700BF00000220A9
:102C700000040000180E0020680E0020024B4FF0E8
:102C800000629A60704700BF00ED00E0DFF834D0CA
:102C9000002103E00C4B5B58435004310B480C4BB4
:102CA00042189A42F6D30B4A02E0002342F8043B52
:102CB000094B9A42F9D3FFF7E1FF02F059FCFFF705
:102CC000C9FA704700000220C8B9000800000020BF
:102CD000C0090020C0090020680E0020FEE70000A7
:102CE00010B504460E4B18784FF47A73B3FBF0F32B
:102CF0000C4A1068B0FBF3F000F0EEFB68B90F2C43
:102D000001D901200AE0002221464FF0FF3000F0F7
:102D10009DFB054B1C60002000E0012010BD00BFA2
:102D20000C000020080000201000002008B50B4B0C
:102D30001A6842F400721A601A6842F480621A60DB
:102D40001A6842F480721A60032000F06DFB0020C4
:102D5000FFF7C6FFFFF7DEFD002008BD003C024084
:102D6000034A1168034B1B780B441360704700BF84
:102D70001C0E00200C000020014B1868704700BF9B
:102D80001C0E002038B50446FFF7F6FF0546B4F1E7
:102D9000FF3F02D0044B1B781C44FFF7EDFF401BA4
:102DA000A042FAD338BD00BF0C0000204A4B5A683D
:102DB00022F440325A605A6841680A435A600268F5
:102DC000536823F48073536002685368016943EACF
:102DD000012353600268536823F040735360026814
:102DE000536881680B4353600268936823F400635F
:102DF000936002689368C1680B439360826A374BA3
:102E00009A4257D00268936823F070639360026817
:102E10009368816A0B4393600268936823F0405380
:102E2000936002689368C16A0B4393600268936879
:102E300023F00203936002689368017E43EA410332
:102E4000936090F82030002B3FD00268536843F421
:102E5000006353600268536823F460435360016861
:102E60004B68426A013A43EA42334B600268D36AD4
:102E700023F47003D3620168CB6AC269013A43EA62
:102E80000253CB620268936823F400739360026874
:102E9000936890F8301043EA412393600268936886
:102EA00023F48063936002689368416943EA812355
:102EB000936070470268936823F0706393600268C0
:102EC000936823F040539360B0E70268536823F49B
:102ED00000635360CAE700BF002301400100000FF8
:102EE00038B310B50446036C43B1236C13F0100FD4
:102EF0000BD00120002384F83C3010BDFFF72AFDE1
:102F00000023636484F83C30EFE7236C23F4885398
:102F100023F0020343F0020323642046FFF746FF39
:102F200000206064236C23F0030343F00103236457
:102F3000E0E701207047000082B00023019390F881
:102F40003C30012B63D0012380F83C3003689A6841
:102F500012F0010F13D19A6842F001029A60304BCF
:102F60001B68304AA2FB03239B0C03EB4303019332
:102F700002E0019B013B0193019B002BF9D1026808
:102F8000936813F0010F44D0036C23F4E06323F043
:102F9000010343F480730364536813F4806F05D016
:102FA000036C23F4405343F480530364036C13F421
:102FB000805F19D0436C23F006034364002380F83C
:102FC0003C306FF022031360174B5B6813F01F0F48
:102FD0000DD103689A6812F0405F1DD19A6842F0E3
:102FE00080429A60002015E000234364E6E703680E
:102FF0000E4A934201D000200CE09A6812F0405F24
:103000000CD19A6842F080429A60002002E00220CF
:1030100000E0002002B070470020FBE70020F9E745
:103020000800002083DE1B430023014000200140F4
:1030300090F83C30012B19D0012380F83C30026815
:10304000936823F00103936003689B6813F0010FFA
:1030500007D1036C23F4885323F0010343F00103E9
:103060000364002380F83C30184670470220704704
:1030700070B504460D4603689A6812F4806F03D059
:103080009B6813F4807F19D1FFF776FE064623680C
:103090001A6812F0020F1AD1B5F1FF3FF7D025B12F
:1030A000FFF76AFE801BA842F1D9236C43F00403AA
:1030B0002364002384F83C3003202CE0036C43F0AD
:1030C00020030364002380F83C30012023E06FF0EC
:1030D00012021A60236C43F40073236423689A6815
:1030E00012F0405F16D1207EB0B9DA6A12F4700F88
:1030F00003D09B6813F4806F0DD1236C23F480738D
:103100002364236C13F4805F05D1236C43F0010327
:10311000236400E0002070BD0020FCE70368D86C49
:10312000704770477047704738B5044602681168A9
:10313000536811F0020F2FD003F0200363B3036C28
:1031400013F0100F03D1036C43F40073036493680E
:1031500013F0405F19D1237EBBB9D36A13F4700F0B
:1031600003D0936813F4806F0FD1536823F02003CA
:103170005360236C23F480732364236C13F4805F07
:1031800003D1236C43F0010323642046FFF7C9FFFA
:1031900023686FF012021A60236819685A6802F0F7
:1031A000800211F0040F36D0002A34D0226C12F0C5
:1031B000100F03D1226C42F4005222649A6812F478
:1031C000401F21D19A6B12F4401F03D09A6812F469
:1031D000806F19D15A6812F4806F15D19A6812F075
:1031E000405F11D1227E7AB95A6822F080025A607B
:1031F000236C23F480532364236C13F4807F03D166
:10320000236C43F001032364204600F00BF923688C
:103210006FF00C021A6022681168536803F04003D3
:1032200011F0010F04D01BB1136813F0010F09D185
:1032300022681168536803F0806311F0200F00D0FA
:1032400063B938BD236C43F4803323642046FFF711
:1032500069FF23686FF001021A60E9E7636C43F0CD
:10326000020363646FF0200515602046FFF75BFFE3
:1032700023681D60E5E7000030B482B000230193AD
:1032800090F83C30012B00F0C080012380F83C30E6
:103290000B68092B41D90468E2689BB203EB430336
:1032A0001E3B4FF0070C0CFA03F322EA0303E36022
:1032B0000468E2680B8803EB43031E3B8D6805FA44
:1032C00003F31343E3604B68062B3DD80468626B3D
:1032D00003EB8303053B4FF01F0C0CFA03F322EAC8
:1032E000030363630468626B4B6803EB8303053B72
:1032F000B1F800C00CFA03F3134363630268444B54
:103300009A4251D00268424B9A425AD0002380F828
:103310003C30184602B030BC7047046822699BB24A
:1033200003EB43034FF0070C0CFA03F322EA030309
:103330002361046822690B8803EB43038D6805FA57
:1033400003F313432361BEE70C2B16D805682A6BE1
:1033500003EB8303233B1F2404FA03F322EA030352
:103360002B6305682A6B4B6803EB8303233B0C88B4
:1033700004FA03F313432B63C0E70568EA6A03EB1F
:103380008303413B1F2404FA03F322EA0303EB62A5
:103390000568EA6A4B6803EB8303413B0C8804FA37
:1033A00003F31343EB62A9E70B68122BAAD1194B65
:1033B0005A6822F400025A605A6842F480025A6045
:1033C000A0E70B68144A934201D0112B9ED1114BF8
:1033D0005A6822F480025A605A6842F400025A6025
:1033E0000A680D4B9A4291D10C4B1B680C4AA2FB08
:1033F00003239B0C03EB83035B000193019B002BD6
:1034000084D0019B013B0193F8E7022082E700BFD3
:10341000002001400023014012000010080000209D
:1034200083DE1B4370470000074AD36823F4E06340
:103430001B041B0C000200F4E060034343F0BF6375
:1034400043F40033D360704700ED00E000B5194B42
:10345000DB68C3F30223C3F1070CBCF1040F28BFE0
:103460004FF0040C03F1040EBEF1060F18D9033B14
:103470004FF0FF3E0EFA0CFC21EA0C0199400EFAC7
:1034800003F322EA0303194300280BDB0901C9B245
:1034900000F1604000F5614080F800135DF804FB26
:1034A0000023E5E700F00F000901C9B2024B1954EF
:1034B000F4E700BF00ED00E014ED00E0002807DBBA
:1034C00000F01F02400901239340024A42F82030D5
:1034D000704700BF00E100E00138B0F1807F0BD2FF
:1034E0004FF0E0235861054AF02182F823100020B4
:1034F000986107221A6170470120704700ED00E0D3
:1035000010B40368D9B210390B4AA2FB0142120968
:103510000A4CA25CC2655F2908D923F47F7323F0AB
:10352000030304338365806D10BC704723F47F73FD
:1035300023F003038365F6E7ABAAAAAAB8B500088F
:10354000836A826992B9012B0AD0022B02D00BB197
:1035500000207047C36A13F0807F28D10020704795
:10356000C36AB3F1C07F24D000207047B2F5005F7A
:1035700009D0022B25D9032B25D1C36A13F0807FF4
:1035800023D100207047032B03D8DFE803F0140495
:10359000140A00207047C36A13F0807F0DD1002009
:1035A0007047C36AB3F1C07F09D000207047012083
:1035B00070470120704701207047012070470120AB
:1035C00070470120704700207047012070470000BD
:1035D00070B50446FFF7D0FB002C5BD005460023F6
:1035E00084F83430022384F835302268136823F0DD
:1035F0000103136023681A6812F0010F0AD0FFF765
:10360000BBFB431B052BF5D920236365032084F8FE
:10361000350070BD1A68204810406168A2680A43EE
:10362000E1680A4321690A4361690A43A1690A43BF
:10363000E1690A43216A0A430243616A04291ED0F0
:103640001A602668756925F00705636A1D43042B17
:1036500007D1A36A1D43E36A1BB12046FFF770FF41
:1036600090B975612046FFF74BFFE26D3F23934011
:10367000836000206065012384F83530C9E7E16A82
:10368000206B01430A43DBE740236365012084F894
:103690003500BEE70120BCE73F8010F0F0B583B0F5
:1036A000044600230193724B1D68724BA3FB053542
:1036B000AD0A876D3E68C26D08239340334210D037
:1036C00003681A6812F0040F0BD01A6822F0040283
:1036D0001A60C26D08239340BB60436D43F0010341
:1036E0004365E26D01239340334209D02268526959
:1036F00012F0800F04D0BB60636D43F0020363657A
:10370000E26D04239340334209D02268126812F01C
:10371000020F04D0BB60636D43F004036365E26D88
:1037200010239340334224D02268126812F0080F0D
:103730001FD0BB6023681A6812F4802F0DD01B685D
:1037400013F4002F04D1236C9BB12046984710E05E
:10375000A36C73B1204698470BE01A6812F4807F7F
:1037600003D11A6822F008021A60236C0BB12046BC
:103770009847E26D20239340334255D02268126867
:1037800012F0100F50D0BB6094F83530DBB2052B2F
:103790000ED023681A6812F4802F33D01B6813F4FC
:1037A000002F2AD1636C002B3ED0204698473BE087
:1037B0002268136823F0160313602268536923F00C
:1037C00080035361236CA3B12268136823F00803BC
:1037D0001360E26D3F239340BB60002384F83430D4
:1037E000012384F83530236D002B3FD020469847C5
:1037F0003CE0A36C002BE7D1EBE7E36BA3B12046E1
:10380000984711E01A6812F4807F09D11A6822F0F3
:1038100010021A60002384F83430012384F8353014
:10382000E36B0BB120469847636DFBB1636D13F0FA
:10383000010F17D0052384F835302268136823F070
:1038400001031360019B01330193AB4204D8236849
:103850001B6813F0010FF5D1002384F834300123E5
:1038600084F83530E36C0BB12046984703B0F0BDC7
:1038700008000020B5814E1B00230F2B00F2C880EA
:10388000F0B583B03AE0042200E00022AA403243BF
:103890000234604D45F824205F4A14686FEA0C0238
:1038A00024EA0C054E6816F4803F01D04CEA04056A
:1038B000594C2560646802EA04054E6816F4003F1E
:1038C00001D04CEA0405544C6560A46802EA040582
:1038D0004E6816F4801F01D04CEA04054E4CA560DA
:1038E000E46822404D6815F4001F01D04CEA040240
:1038F000494CE26001330F2B00F2888001229A408C
:103900000C6804EA020C32EA0404F3D14C68651E28
:10391000012D03D9112C01D0122C12D185685E0023
:103920000324B44025EA0405CC68B4402C438460E9
:10393000456825EA02054C68C4F300129A402A4300
:103940004260C5684FEA430E032404FA0EF4E243D2
:1039500025EA04058C6804FA0EF42C43C4604C6814
:10396000022C01D0122C0FD1DD08083550F825703B
:1039700003F00704A6000F24B44027EA04070C69EB
:10398000B4403C4340F82540046814404A6802F0C3
:10399000030202FA0EF2224302604A6812F0805FCC
:1039A000A8D0002201921D4A546C44F4804454640F
:1039B000526C02F480420192019A9C08A51C154A9F
:1039C00052F8256003F0030295000F22AA4026EA70
:1039D0000206134A90423FF458AF02F580629042CB
:1039E0000ED002F5806290420CD002F580629042C7
:1039F0000AD002F5806290423FF445AF072245E7C6
:103A0000012243E7022241E703223FE703B0F0BD72
:103A1000704700BF00380140003C014000380240C0
:103A2000000002400369194201D0012070470020C4
:103A300070470AB18161704709048161704703686A
:103A40005A6912F4806F01D1002070476FF48062D0
:103A50005A6100230363202280F83D2080F83E3025
:103A6000026C42F00402026480F83C30012070478E
:103A70002DE9F04107460D4690461E4624E0FFF72B
:103A80007BF9069BC01AB04200D8EEB900233B6315
:103A9000202287F83D2087F83E303A6C42F0200221
:103AA0003A6487F83C3001201EE03B689C6925EAB7
:103AB000040C1FFA8CFCBCFA8CFC4FEA5C1CE04541
:103AC00011D1B6F1FF3FDAD1C5F30743012BECD199
:103AD0003B685B6925EA030C1FFA8CFCBCFA8CFC82
:103AE0004FEA5C1CEBE70020BDE8F0812DE9F041D6
:103AF00005460E46174698463DE01A6842F40072A5
:103B00001A602B686FF480625A6100232B632022B5
:103B100085F83D2085F83E302A6C42F004022A6484
:103B200085F83C30012034E0FFF726F9A0EB0800CF
:103B3000B84200D8FFB900232B63202285F83D202E
:103B400085F83E302A6C42F020022A6485F83C3029
:103B500001201EE02B689C6926EA0404A4B2003C04
:103B600018BF0124A4B12B685A6912F4806FC4D124
:103B7000B7F1FF3FD8D1C6F30743012BEAD12B6839
:103B80005C6926EA0404A4B2003C18BF0124E9E7FA
:103B90000020BDE8F0810000F0B583B004460D467A
:103BA00016461F46C36A082B0DD0012B0BD013F508
:103BB000803F08D0036B122B0AD10268136843F4CC
:103BC0008073136004E02268136843F48073136009
:103BD0000097334600224FF001112046FFF748FFBF
:103BE00080B92369B3F5804F16D1236805F0FE052F
:103BF0001D613B46324613492046FFF777FFF8B96F
:103C000003B0F0BD23681B6813F4807F02D04FF42B
:103C1000007323640320F3E7EB11226803F006032B
:103C200043F0F00313613B46324607492046FFF755
:103C30005DFF18B92368EDB21D61DAE70120DFE707
:103C40000120DDE7020001000800010070B5044614
:103C50000D46164623685B6913F0800F1CD1204681
:103C6000FFF7EDFED0B9B5F1FF3FF3D0FFF784F8D1
:103C7000801BA84201D8002DECD100232363202211
:103C800084F83D2084F83E30226C42F02002226409
:103C900084F83C30012000E0002070BD0120FCE7EA
:103CA00070B504460D46164623685B6913F0040F91
:103CB0001CD12046FFF7C3FED0B9B5F1FF3FF3D0CA
:103CC000FFF75AF8801BA84201D8002DECD1002341
:103CD0002363202284F83D2084F83E30226C42F099
:103CE0002002226484F83C30012000E0002070BDF6
:103CF0000120FCE7002800F0CC8070B5044690F865
:103D00003D30002B77D0242384F83D30226813689F
:103D100023F0010313602268136843F40043136027
:103D20002268136823F40043136000F05DFD6268AD
:103D30005A4B9A4264D85A4B98428CBF00230123B5
:103D4000002B40F0A8805749A1FB00318B0C25685F
:103D50006A6822F03F0242EA91426A6021680A6A78
:103D600022F03F0266684D4DAE424FD801331343F7
:103D70000B622168CA6922F44F4222F0FF02666892
:103D8000464B9E424CD8431E7600B3FBF6F30133FC
:103D900040F6FC70034278D0C3F30B031343CB61AE
:103DA00021680B6823F0C003E269206A02431343D1
:103DB0000B6021688B6823F4034323F0FF0322691F
:103DC000E068024313438B602168CB6823F0FF0354
:103DD0006269A06902431343CB602268136843F011
:103DE0000103136000202064202384F83D30206309
:103DF00084F83E0070BD80F83C30FEF709FE82E793
:103E0000294B98428CBF0023012399E74FF4967504
:103E100005FB03F3254DA5FB03539B090133A6E7DF
:103E2000A368BBB9451E06EB460CB5FBFCF5013596
:103E3000C5F30B05B5FA85F56D0945BBC3B9013866
:103E400006EB4603B0FBF3F30133C3F30B0343F478
:103E50000043A3E7451E06EB860C0CEB8C0CB5FB70
:103E6000FCF50135C5F30B05B5FA85F56D09E4E7F9
:103E7000013806EB860303EB8303B0FBF3F3013356
:103E8000C3F30B0343F4404388E7042386E701238D
:103E900084E7012070470120ACE700BFA086010045
:103EA0007F841E0083DE1B43FF083D00D34D62105C
:103EB0002DE9F04385B004460F46914698460C9E86
:103EC000FEF75AFF054694F83D00C0B2202804D002
:103ED0000227384605B0BDE8F0830095192301227A
:103EE0004F492046FFF7C4FD002840F0928094F827
:103EF0003C30012B00F08F80012384F83C30236894
:103F00001A6812F0010F03D11A6842F001021A6018
:103F10002268136823F400631360212384F83D3082
:103F2000102384F83E3000232364C4F82490A4F8BE
:103F30002A80638D23853B4BE3622B46324639460C
:103F40002046FFF729FE0746002866D10023039389
:103F500023685A6903929B690393039B11E0236CC6
:103F6000042B01D00127B4E72268136843F40073DF
:103F70001360F7E72A4631462046FFF791FE0028F6
:103F80002ED1238D002B36D02A4631462046FFF70E
:103F90005DFE0028E3D1626A236812781A61606AC4
:103FA000431C6362618D89B2013989B26185238DB9
:103FB000013B9BB223852268516911F0040FD9D0CF
:103FC000002BD7D043781361636A01336362638D3A
:103FD0009BB2013B9BB26385238D013B2385C9E7DF
:103FE000236C042B01D0012773E72268136843F484
:103FF00000731360F7E72268136843F400731360DB
:10400000202384F83D30002384F83E3084F83C308F
:104010005FE702275DE702275BE7012759E700BF5B
:10402000020010000000FFFF2DE9F04385B00446B8
:10403000884691461D46FEF79FFE94F83D30DBB260
:10404000202B03D0022005B0BDE8F0830646009087
:104050001923012258492046FFF70AFD002840F0A5
:10406000A28094F83C30012B00F09F80012384F85B
:104070003C3023681A6812F0010F03D11A6842F02D
:1040800001021A602268136823F40063136024237A
:1040900084F83D3000232364A3F58033E3620127D5
:1040A00040E023681B6813F4807F02D04FF4007354
:1040B00023640320C7E7A02384F83D3022685369B6
:1040C000C3F340035269C2F3802294F83DC05FFA03
:1040D0008CFCBCF1A00F09D043B93AB9FEF74CFEF5
:1040E000801BA842E7D8002DE8D1E4E7202384F81C
:1040F0003D3023685A6912F0020F31D11A6842F438
:1041000000721A6023686FF480625A610096192366
:10411000012229492046FFF7ABFC002849D101378D
:104120004F4538D22268136843F4807313600096B9
:104130002B4600224FF001112046FFF799FC002882
:10414000AFD1236808F0FE021A61FEF715FE06469D
:1041500022685369C3F340035269C2F38022B4E773
:104160001A6842F400721A600023039323685A69A4
:1041700003929B690393039B0096192301220E4926
:104180002046FFF775FC90B9202384F83D300023CA
:1041900084F83C3057E7202384F83D30002384F82E
:1041A0003C3001204FE702204DE702204BE7012081
:1041B00049E7012047E700BF02001000002800F097
:1041C000DA8170B582B00446036813F0010F3BD06A
:1041D0009F4B9B6803F00C03042B2CD09C4B9B68DB
:1041E00003F00C03082B21D06368B3F5803F4FD058
:1041F000B3F5A02F52D0964B1A6822F480321A6081
:104200001A6822F480221A606368002B50D0FEF7EF
:10421000B3FD05468E4B1B6813F4003F14D1FEF727
:10422000ABFD401B6428F5D90320ABE1884B5B68EC
:1042300013F4800FD8D0864B1B6813F4003F03D0D3
:104240006368002B00F09981236813F0020F54D0AB
:104250007F4B9B6813F00C0F3ED07D4B9B6803F0A7
:104260000C03082B33D0E368002B68D0794B012274
:104270001A60FEF781FD0546754B1B6813F0020FAF
:1042800054D1FEF779FD401B0228F5D9032079E1CE
:104290006F4A136843F480331360B5E76C4B1A68B8
:1042A00042F480221A601A6842F480321A60ABE746
:1042B000FEF762FD0546664B1B6813F4003FC3D052
:1042C000FEF75AFD401B6428F5D903205AE1604BE4
:1042D0005B6813F4800FC6D15D4B1B6813F0020FAF
:1042E00003D0E368012B40F04A81594A136823F058
:1042F000F803216943EAC1031360236813F0080F30
:1043000042D063696BB3534B0122C3F8802EFEF792
:1043100033FD05464E4B5B6F13F0020F34D1FEF7B1
:104320002BFD401B0228F5D903202BE1484A1368D6
:1043300023F0F803216943EAC1031360DDE7454B2D
:1043400000221A60FEF718FD0546414B1B6813F06A
:10435000020FD2D0FEF710FD401B0228F5D9032032
:1043600010E13C4B0022C3F8802EFEF705FD054608
:10437000374B5B6F13F0020F06D0FEF7FDFC401BBE
:104380000228F5D90320FDE0236813F0040F77D04D
:104390002F4B1B6C13F0805F33D1002301932C4B08
:1043A0001A6C42F080521A641B6C03F08053019324
:1043B000019B0125284B1B6813F4807F23D0A36841
:1043C000012B34D0052B38D0214B1A6F22F001027B
:1043D0001A671A6F22F004021A67A368002B3DD0F7
:1043E000FEF7CAFC06461A4B1B6F13F0020F46D1AC
:1043F000FEF7C2FC801B41F288339842F3D90320B8
:10440000C0E00025D6E7144A136843F480731360B4
:10441000FEF7B2FC0646104B1B6813F4807FCED12A
:10442000FEF7AAFC801B0228F5D90320AAE0084A5F
:10443000136F43F001031367CFE7054B1A6F42F088
:1044400004021A671A6F42F001021A67C5E700BF3B
:10445000003802400000474200700040FEF78CFC2C
:1044600006464F4B1B6F13F0020F08D0FEF784FC7B
:10447000801B41F288339842F3D9032082E0E5B9EA
:10448000A369002B7DD0464A926802F00C02082AEC
:1044900051D0022B17D0434B00221A66FEF76CFC5A
:1044A00004463F4B1B6813F0007F42D0FEF764FCCC
:1044B000001B0228F5D9032064E0394A136C23F06D
:1044C00080531364DCE7374B00221A66FEF754FC76
:1044D0000546334B1B6813F0007F06D0FEF74CFCFB
:1044E000401B0228F5D903204CE0E369226A1343FC
:1044F000626A43EA8213A26A5208013A43EA02431B
:10450000E26A43EA0263264A5360264B01221A6696
:10451000FEF732FC0446224B1B6813F0007F06D1E5
:10452000FEF72AFC001B0228F5D903202AE0002010
:1045300028E0002026E0012B26D0194B5B6803F40D
:104540008001E269914221D103F03F02216A8A424F
:104550001ED1616A47F6C0721A408A421AD103F42A
:104560004032A16A8A4217D103F07063E26A934233
:1045700014D1002006E001207047012002E0012054
:1045800000E0002002B070BD0120FBE70120F9E748
:104590000120F7E70120F5E70120F3E70120F1E72B
:1045A000003802400000474208B5314B9B6803F0D9
:1045B0000C03042B57D0082B57D12D4B5A6802F00F
:1045C0003F025B6813F4800F2AD0294B5968C1F36E
:1045D000881C4FEA4C11B1EB0C006EEB0E0E4FEA4B
:1045E0008E1343EA90638101091A63EB0E03DB002B
:1045F00043EA5173C90011EB0C0C43F1000359025B
:1046000000234FEA4C2041EADC51FCF79BFB184B9E
:104610005B68C3F3014301335B00B0FBF3F025E0BB
:10462000134B5968C1F3881C4FEA4C11B1EB0C00D5
:104630006EEB0E0E4FEA8E1343EA90638101091A66
:1046400063EB0E03DB0043EA5173C90011EB0C0C62
:1046500043F10003990200234FEA8C2041EA9C5168
:10466000FCF770FBD3E7034800E0034808BD00BF38
:104670000038024000127A000024F400002800F004
:104680009B8070B50D4604464F4B1B6803F00F032B
:104690008B4208D2CBB24C4A1370136803F00F035D
:1046A0008B4240F08B80236813F0020F17D013F079
:1046B000040F04D0454A936843F4E05393602368A1
:1046C00013F0080F04D0414A936843F460439360A9
:1046D0003E4A936823F0F003A1680B43936023687C
:1046E00013F0010F32D06368012B21D09A1E012AEA
:1046F00025D9364A126812F0020F61D033498A6810
:1047000022F0030213438B60FEF736FB06462F4B65
:104710009B6803F00C036268B3EB820F16D0FEF7C0
:104720002BFB801B41F288339842F0D9032042E0F2
:10473000264A126812F4003FE0D101203BE0234AF0
:10474000126812F0007FD9D1012034E01E4B1B68A3
:1047500003F00F03AB4207D9EAB21B4B1A701B6878
:1047600003F00F03AB422DD1236813F0040F06D0E2
:10477000164A936823F4E053E1680B43936023687F
:1047800013F0080F07D0114A936823F4604321699E
:1047900043EAC1039360FFF707FF0C4B9B68C3F329
:1047A00003130B4AD35CD8400A4B18600A4B1868B5
:1047B000FEF796FA002070BD012070470120FAE74D
:1047C0000120F8E70120F6E7003C024000380240F3
:1047D000A0B500080800002010000020014B186858
:1047E000704700BF0800002008B5FFF7F7FF044B33
:1047F0009B68C3F38223034AD35CD84008BD00BF43
:1048000000380240B0B5000830B583B004460368F4
:1048100013F0050F0ED1236813F0020F38D123686F
:1048200013F0080F00F09D80227D4F4BC3F8E0216C
:10483000002097E04D4B00229A66FEF79DFA054650
:104840004B4B1B6813F0006F06D0FEF795FA431B25
:10485000022BF5D9032085E06368A26843EA82133E
:10486000E26843EA0273424AC2F884303F4B0122B5
:104870009A66FEF781FA05463D4B1B6813F0006F00
:10488000C9D1FEF779FA401B0228F5D9032069E067
:1048900000230193364B1A6C42F080521A641B6C51
:1048A00003F080530193019B324A136843F48073F1
:1048B0001360FEF761FA05462E4B1B6813F4807FE8
:1048C00006D1FEF759FA431B022BF5D9032049E024
:1048D000274B1B6F13F4407314D0226902F440720B
:1048E0009A420FD0224B1A6F22F440721F490120C6
:1048F000C1F8400E0020C1F8400E1A671B6F13F07C
:10490000010F12D1236903F44072B2F5407F1DD02C
:10491000174A936823F4F813936015490B6F2269C3
:10492000C2F30B0213430B6779E7FEF725FA05463E
:104930000F4B1B6F13F0020FE4D1FEF71DFA401B63
:1049400041F288339842F3D903200BE008498A6882
:1049500022F4F81223F0704323F4407313438B6066
:10496000DBE7002003B030BD0010474200004742A3
:1049700000380240007000407047000010B5044647
:1049800003689A6812F4805F03D0DB6813F4807FB9
:104990000FD123689A6812F4005F03D0DB6813F428
:1049A000007F0FD10C4B4FF400325A610123637723
:1049B00010BDFFF7E1FF2268D368DBB263F4C07378
:1049C000D360E6E7204600F069FA2268D368DBB2DC
:1049D00063F42073D360E5E7003C014038B504463A
:1049E0000268D36823F0A003D360FEF7C5F905463B
:1049F0002368DB6813F0200F07D1FEF7BDF9401BD9
:104A0000B0F57A7FF4D9032000E0002038BD38B536
:104A10000368DA6812F0400F01D0002038BD044668
:104A20004FF0FF32DA60FEF7A7F905462368DB682E
:104A300013F0400F07D1FEF79FF9431BB3F57A7FC0
:104A4000F4D90320EAE70020E8E738B500285CD075
:104A50000446437F002B41D0022363772368CA2298
:104A60005A62236853225A622046FFF7D0FF054658
:104A7000002837D12268936823F4E00323F0400331
:104A8000936021688A68636820690343606903430F
:104A900013438B602368E2681A6122681369A16876
:104AA00043EA014313612268D36823F08003D36093
:104AB00023689B6813F0200F1BD02268136C23F42B
:104AC000802313642268136CA1690B431364236869
:104AD000FF225A6201236377284638BD0377FDF72A
:104AE000CFFFB9E72368FF225A62042363770125C9
:104AF000F2E72046FFF772FF0028DED02368FF228E
:104B00005A62042363770125E6E70125E4E70023E1
:104B100002E001330A38C0B20928FAD81B01DBB21F
:104B200018437047F8B5037F012B78D004460E4632
:104B30000123037702234377002A47D103689B6848
:104B400013F0400F01D10023CB703078FFF7DFFF67
:104B500005047078FFF7DBFF45EA0025B078FFF722
:104B6000D6FF0543F07845EA00452368CA225A6219
:104B7000236853225A622046FFF749FF0746002860
:104B800036D1236805F07F3525F0FE451D6022688B
:104B9000936823F48023936021688B68F2683069FE
:104BA000024313438B602268D36823F08003D360F1
:104BB00023689B6813F0200F23D02368FF225A62DA
:104BC00001236377002323773846F8BD03689B6889
:104BD00013F0400F01D10023CB70357870780002BC
:104BE00040EA0540B5782843F57840EA0545BCE73A
:104BF0002368FF225A620423637700232377012767
:104C0000E2E72046FFF7EAFE0028D6D02368FF221D
:104C10005A6204236377002323770127D4E702270E
:104C2000D2E770B5037F012B66D004460E46012300
:104C30000377022343773AB94B7813F0100F03D070
:104C400003F0EF030A334B70002A33D1F078FFF7FB
:104C50005EFF05047078FFF75AFF45EA0025B0783B
:104C6000FFF755FF0543307845EA40352368CA22EF
:104C70005A62236853225A622046FFF7C8FE06464E
:104C800018BB236825F07F4525F0C0055D602268CC
:104C9000D36823F08003D36023689B6813F0200F50
:104CA0001CD02368FF225A620123637700232377F5
:104CB000304670BDF5787078000240EA0540B5785E
:104CC0002843357840EA4535D0E72368FF225A6209
:104CD00004236377002323770126E9E72046FFF7C3
:104CE0007DFE0028DDD02368FF225A62042363770B
:104CF000002323770126DBE70226D9E7F0B583B04E
:104D00000D46634B1B686349A1FB0313DB0A4FF499
:104D10007A7101FB03F30193037F012B00F0B5804F
:104D200004460123037702234377002A61D10368F5
:104D30009B6813F0400F01D10023EB70EF692878D6
:104D4000FFF7E5FE06046878FFF7E1FE46EA002675
:104D5000A878FFF7DCFE0643E87846EA004695F8B7
:104D60002000FFF7D4FE46EA00663E436B691E430F
:104D70006868AB6918432368CA225A6223685322C1
:104D80005A626B6AB3F5807F4DD02268936823F432
:104D9000007393602268D368DBB263F42073D3603E
:104DA000019B5A1E0192002B67D02368DA6812F02B
:104DB000020FF5D01E62236898642268936843F45A
:104DC000007393602268936843F400539360324BFE
:104DD0001A6842F400321A609A6842F400329A600B
:104DE0002368FF225A62012363770020207703B0F3
:104DF000F0BD03689B6813F0400F01D10023EB70F6
:104E0000EA6929786B781B0243EA0143A9780B43CE
:104E1000E97843EA014395F8201043EA016313431C
:104E20006E691E43A4E72268936823F4807393603D
:104E30002268D368DBB263F4C073D360019B5A1E4F
:104E4000019293B12368D96811F0010FF6D0DE61A9
:104E5000236858642268936843F4807393602268DF
:104E6000936843F480539360B1E72368FF225A624A
:104E70000320607700232377B9E72368FF225A6273
:104E80000320607700232377B1E70220AFE700BF5C
:104E900008000020D34D6210003C01407047000024
:104EA00070B4036A23F001030362036A46688269EF
:104EB00022F073020C6844EA020523F002028B68B8
:104EC00013430D4CA04209D00B4CA0420DD04660BC
:104ED00085614A684263036270BC704723F008032F
:104EE000CA68134323F00403EEE726F440764A69C8
:104EF00032438E691643EAE70000014030B4036A8A
:104F000023F480730362036A4568C26922F0730266
:104F10000C68224323F400738C6843EA04230F4C8B
:104F2000A04209D00D4CA0420ED04560C2614A6833
:104F3000C263036230BC704723F40063CC6843EA69
:104F4000042323F48063EDE725F440554C6945EADA
:104F500004158C6945EA0415E7E700BF000001402D
:104F600030B4036A23F480530362036A4468C2695D
:104F700022F4E6420D6842EA052223F400538D68CC
:104F800043EA0533074DA84206D04460C2614A682F
:104F90000264036230BC704724F480444D6944EAE3
:104FA0008514F2E70000014010B4036A046A24F09B
:104FB00001040462846924F0F00C4CEA021223F02C
:104FC0000A030B438261036210BC704710B4046A89
:104FD00024F0100404628469036A24F4704C4CEADF
:104FE000023223F0A00343EA01138261036210BC82
:104FF0007047836823F070030B4343F0070383601B
:105000007047022380F83D300268936803F007037D
:10501000062B03D0136843F001031360012380F8CB
:105020003D300020704770477047704770477047A9
:10503000704710B5044603681A6912F0020F11D0C8
:10504000DA6812F0020F0DD06FF002021A6101232C
:10505000037703689B6913F0030F70D0FFF7E6FF37
:105060000023237723681A6912F0040F12D0DA683C
:1050700012F0040F0ED06FF004021A61022323779E
:1050800023689B6913F4407F5FD02046FFF7CEFF73
:105090000023237723681A6912F0080F12D0DA6808
:1050A00012F0080F0ED06FF008021A610423237764
:1050B0002368DB6913F0030F4ED02046FFF7B6FFDD
:1050C0000023237723681A6912F0100F12D0DA68D0
:1050D00012F0100F0ED06FF010021A610823237720
:1050E0002368DB6913F4407F3DD02046FFF79EFF25
:1050F0000023237723681A6912F0010F03D0DA68BE
:1051000012F0010F36D123681A6912F0800F03D014
:10511000DA6812F0800F34D123681A6912F0400F58
:1051200003D0DA6812F0400F32D123681A6912F006
:10513000200F03D0DA6812F0200F30D110BDFFF736
:1051400074FF2046FFF773FF8AE72046FFF76DFFE5
:105150002046FFF76CFF9BE72046FFF766FF2046DF
:10516000FFF765FFACE72046FFF75FFF2046FFF73C
:105170005EFFBDE76FF001021A612046FFF754FFA2
:10518000C1E76FF080021A61204600F0EAF9C3E738
:105190006FF040021A612046FFF74AFFC5E76FF043
:1051A00020021A61204600F0DBF9C7E70368254AB0
:1051B00090420ED0B0F1804F0BD0A2F57C429042CD
:1051C00007D002F58062904203D002F580629042DF
:1051D00003D123F070034A6813431A4A90421AD04D
:1051E000B0F1804F17D0A2F57C42904213D002F567
:1051F000806290420FD002F5806290420BD002F59F
:105200009A32904207D002F58062904203D002F5B4
:105210008062904203D123F44073CA68134323F0A1
:1052200080034A69134303608B68C3620B6883621F
:10523000044B984202D00123436170470B6903631A
:10524000F9E700BF00000140B0B110B5044690F886
:105250003D3063B1022384F83D30214651F8040B00
:10526000FFF7A4FF012384F83D30002010BD80F833
:105270003C30FDF71DFCEDE701207047B0B110B5E3
:10528000044690F83D3063B1022384F83D30214656
:1052900051F8040BFFF78AFF012384F83D3000200A
:1052A00010BD80F83C30FFF7BEFEEDE701207047EF
:1052B00030B4036A23F010030362036A446882690E
:1052C00022F4E6420D6842EA052223F020038D68AD
:1052D00043EA05130E4DA84209D00D4DA8420ED049
:1052E000446082614A688263036230BC704723F085
:1052F0008003CD6843EA051323F04003EDE724F46F
:1053000040644D6944EA85048D6944EA8504E7E711
:105310000000014038B590F83C30012B66D00446BF
:105320000D46012380F83C30022380F83D300C2AE2
:105330001AD8DFE802F007191919201919193419B8
:10534000191947000068FFF7ABFD2268936943F025
:10535000080393612268936923F004039361226830
:10536000936929690B439361012384F83D30002040
:1053700084F83C0038BD0068FFF79AFF2268936903
:1053800043F4006393612268936923F4806393611B
:1053900022689369296943EA01239361E4E700687D
:1053A000FFF7ACFD2268D36943F00803D36122689C
:1053B000D36923F00403D3612268D36929690B43BD
:1053C000D361D1E70068FFF7CBFD2268D36943F4CE
:1053D0000063D3612268D36923F48063D3612268B8
:1053E000D369296943EA0123D361BDE70220C1E7FC
:1053F00010B4846824F47F4C42EA03220A4342EA50
:105400000C02826010BC704790F83C30012B66D0D3
:1054100010B50446012380F83C30022380F83D306B
:105420000268936823F47F4323F0770393600B684B
:10543000602B40D022D8402B47D00BD9502B0ED117
:10544000CA6849680068FFF7AFFD50212068FFF780
:10545000D0FD04E0202B0CD008D9302B09D001233B
:1054600084F83D30002084F83C0010BD0BB1102BB7
:10547000F5D119462068FFF7BCFDF0E7702B0ED080
:10548000B3F5005FEBD1CB684A6889680068FFF725
:10549000AFFF2268936843F480439360DFE7CB68F3
:1054A0004A6889680068FFF7A3FF2268936843F0A1
:1054B00077039360D3E7CA6849680068FFF786FD01
:1054C00060212068FFF795FDC9E7CA684968006850
:1054D000FFF76AFD40212068FFF78BFDBFE7022040
:1054E0007047000090F83C30012B34D010B40123F9
:1054F00080F83C30022380F83D3003685A689C688D
:1055000022F0700C0A6842EA0C025A600368134ADF
:10551000934212D0B3F1804F0FD0A2F57C42934258
:105520000BD002F58062934207D002F5806293426D
:1055300003D002F59A32934204D124F080044A68E1
:1055400014439C60012380F83D30002380F83C30F8
:10555000184610BC70470220704700BF0000014091
:1055600070477047014B1868704700BF1400002057
:1055700070B50D4E0D4D761BB61006D0002455F8B3
:10558000043B01349847A642F9D1094E094D761BD8
:1055900005F04EFFB61006D0002455F8043B013448
:1055A0009847A642F9D170BDBCB90008BCB9000843
:1055B000C4B90008BCB90008830730B548D0541EF0
:1055C000002A3FD0CAB2034601E0013C3AD303F8B7
:1055D000012B9D07F9D1032C2DD9CDB245EA052524
:1055E0000F2C45EA054536D9A4F1100222F00F0C24
:1055F00003F1200EE6444FEA121C03F1100242E9C7
:10560000045542E9025510327245F8D10CF10102FD
:1056100014F00C0F03EB021204F00F0C13D0ACF1DA
:10562000040323F003030433134442F8045B93425E
:10563000FBD10CF003042CB1CAB21C4403F8012BBB
:105640009C42FBD130BD64461346002CF4D1F9E7EF
:1056500003461446BFE71A46A446E0E70EB410B569
:105660009DB06FF000411FABCDE9060104910949DF
:1056700053F8042B0290084C0868019302A9059482
:1056800000F00CF8029B00221A701DB0BDE810401B
:1056900003B07047140000200802FFFF2DE9F04F0F
:1056A000D5B00C460C9191460E930A9002F086FEFE
:1056B000036817931846FBF763FDA3891690190634
:1056C00003D52369002B00F08B8700242BAB4D46BC
:1056D000CDE92944CDE91944CDE91B44129428931E
:1056E00098461894002308940024CDE914342B78AC
:1056F000002B00F0DD81AA4604E01AF8013F002BE0
:1057000000F01681252BF8D1BAEB050640F0148184
:105710009AF80030002B00F0CB8100234FF0FF32CD
:105720009AF801608DF8833009930AF1010A079213
:105730001F462B244FF020090AF1010AA6F120038D
:105740005A2B00F22D81DFE813F0BA022B012B0156
:10575000B5022B012B012B016A002B012B014F02FB
:10576000E3022B015A02C9022B01C4025B005B0059
:105770005B005B005B005B005B005B005B002B0180
:105780002B012B012B012B012B012B01BF012B0125
:105790001A028600BF01BF01BF012B012B012B01A3
:1057A0002B01B0022B012B01C3002B012B012B017C
:1057B00024022B015F022B012B013C072B012B0143
:1057C0002B012B012B012B012B012B01BF012B01E5
:1057D0001A028800BF01BF01BF01A3028800810037
:1057E0002B0196022B018202C500700281002B0161
:1057F00024027E0039072B012B0119072B017E00A3
:10580000A6F1300300221AF8016B02EB820203EBCF
:105810004202A6F13003092BF5D909928EE7DDF893
:1058200028B0584602F0CAFD43681B931846FBF7A0
:10583000A7FC1C900646584602F0C0FD83681993E9
:10584000002E40F07A869AF8006075E79AF80060BA
:1058500047F0200770E747F01007BA060E9B40F1AB
:105860008081073323F007031A465B6852F8084B20
:105870000E929946002BC0F25F85079B013301F021
:105880001F8054EA090327F0800B00F0E3840A2C00
:1058900079F1000380F08187303401238DF84F4186
:1058A0005F460B930DF24F1507990B989DF88320D7
:1058B00081424FF00003B8BF01460D9306910F934C
:1058C00013931093002A7CD0069B0133069378E053
:1058D00047F0100717F0200900F034810E9B0733C2
:1058E00023F00703D3F8049053F8084B0E9327F4E2
:1058F000806B002300228DF88320079A511C00F052
:105900000D8254EA09012BF0800740F00682002A3C
:1059100041F01080002B40F0A2841BF001030B9398
:1059200000F0378530238DF84F310DF24F15BBE76E
:10593000BAEB050600F0BC802A9B33442A93299BCE
:105940000133072BC8E90056299305DC08F1080844
:10595000089B33440893DBE60C990A9828AA03F0C5
:105960001BFC80B90DF1AC08F2E70C990A9828AA43
:1059700003F012FC002800F08C800D9B1BB10D99E8
:105980000A9802F015FC0C9B9B8913F0400F089BB2
:1059900018BF4FF0FF330893089855B0BDE8F08F5B
:1059A000002E00F0858000228DF8EC608DF88320B9
:1059B000012306930D920B9307920F92139210926C
:1059C0003BAD17F0020302D006990231069117F0A1
:1059D000840B07D109990698A1EB0009B9F1000FD2
:1059E00000F315832A9C8AB1299A0DF183010132B3
:1059F0000134C8F80010072A4FF001012A942992B7
:105A0000C8F8041000F3468308F1080883B1299B05
:105A100021AA01330234C8F80020072B4FF00202FC
:105A20002A942993C8F8042000F3488308F1080851
:105A3000BBF1800F00F00E82079B0B9AA3EB020BC9
:105A4000BBF1000F00F34F82FB0500F1A5810B9B1A
:105A5000C8F804301C44299BC8F800500133072BB8
:105A60002A94299300F3C78208F108087B0705D51B
:105A7000099B069A9D1A002D00F32C83DDE908325C
:105A800006998A42ACBF9B185B180893002C7FF4E0
:105A90006CAF002329930D9B1BB10D990A9802F05E
:105AA00087FB0DF1AC0855462B78002B7FF423AE15
:105AB0002A9B002B3FF467AF0C9C0A9828AA21462A
:105AC00003F06AFBA38960E70E9B073323F007020C
:105AD000F2E80234CDE91434DDE9143424F0004452
:105AE0000E92994618462146A74B4FF0FF32FBF71E
:105AF0008FFC002840F06284A34B484621464FF0BB
